{
  "_format": "hh-sol-artifact-1",
  "contractName": "JobLogger",
  "sourceName": "contracts/JobLogger.sol",
  "abi": [
    {
      "inputs": [],
      "stateMutability": "nonpayable",
      "type": "constructor"
    },
    {
      "anonymous": false,
      "inputs": [
        {
          "indexed": false,
          "internalType": "address",
          "name": "admin",
          "type": "address"
        },
        {
          "indexed": false,
          "internalType": "uint256",
          "name": "amount",
          "type": "uint256"
        }
      ],
      "name": "AdminWithdrawal",
      "type": "event"
    },
    {
      "anonymous": false,
      "inputs": [
        {
          "indexed": true,
          "internalType": "address",
          "name": "user",
          "type": "address"
        },
        {
          "indexed": false,
          "internalType": "uint256",
          "name": "amount",
          "type": "uint256"
        }
      ],
      "name": "Deposit",
      "type": "event"
    },
    {
      "anonymous": false,
      "inputs": [
        {
          "indexed": false,
          "internalType": "uint256",
          "name": "jobId",
          "type": "uint256"
        },
        {
          "indexed": false,
          "internalType": "address",
          "name": "executor",
          "type": "address"
        },
        {
          "indexed": false,
          "internalType": "uint256",
          "name": "cleanedAt",
          "type": "uint256"
        }
      ],
      "name": "ExecutorCleaned",
      "type": "event"
    },
    {
      "anonymous": false,
      "inputs": [
        {
          "indexed": false,
          "internalType": "address",
          "name": "executor",
          "type": "address"
        }
      ],
      "name": "ExecutorDeregistered",
      "type": "event"
    },
    {
      "anonymous": false,
      "inputs": [
        {
          "indexed": false,
          "internalType": "address",
          "name": "executor",
          "type": "address"
        }
      ],
      "name": "ExecutorRegistered",
      "type": "event"
    },
    {
      "anonymous": false,
      "inputs": [
        {
          "indexed": false,
          "internalType": "uint256",
          "name": "jobId",
          "type": "uint256"
        },
        {
          "indexed": true,
          "internalType": "address",
          "name": "executor",
          "type": "address"
        },
        {
          "indexed": false,
          "internalType": "uint256",
          "name": "claimedAt",
          "type": "uint256"
        }
      ],
      "name": "JobClaimed",
      "type": "event"
    },
    {
      "anonymous": false,
      "inputs": [
        {
          "indexed": false,
          "internalType": "uint256",
          "name": "jobId",
          "type": "uint256"
        },
        {
          "indexed": false,
          "internalType": "uint256",
          "name": "cleanedAt",
          "type": "uint256"
        }
      ],
      "name": "JobCleaned",
      "type": "event"
    },
    {
      "anonymous": false,
      "inputs": [
        {
          "indexed": false,
          "internalType": "uint256",
          "name": "jobId",
          "type": "uint256"
        },
        {
          "indexed": false,
          "internalType": "bytes32",
          "name": "resultHash",
          "type": "bytes32"
        },
        {
          "indexed": false,
          "internalType": "uint256",
          "name": "completedAt",
          "type": "uint256"
        },
        {
          "indexed": false,
          "internalType": "bool",
          "name": "paid",
          "type": "bool"
        }
      ],
      "name": "JobCompleted",
      "type": "event"
    },
    {
      "anonymous": false,
      "inputs": [
        {
          "indexed": false,
          "internalType": "uint256",
          "name": "jobId",
          "type": "uint256"
        },
        {
          "indexed": false,
          "internalType": "string",
          "name": "reason",
          "type": "string"
        },
        {
          "indexed": false,
          "internalType": "enum JobLogger.ErrorCode",
          "name": "errorCode",
          "type": "uint8"
        },
        {
          "indexed": false,
          "internalType": "uint256",
          "name": "failedAt",
          "type": "uint256"
        }
      ],
      "name": "JobFailed",
      "type": "event"
    },
    {
      "anonymous": false,
      "inputs": [
        {
          "indexed": false,
          "internalType": "uint256",
          "name": "jobId",
          "type": "uint256"
        },
        {
          "indexed": true,
          "internalType": "address",
          "name": "submitter",
          "type": "address"
        },
        {
          "indexed": false,
          "internalType": "string",
          "name": "modelCID",
          "type": "string"
        },
        {
          "indexed": false,
          "internalType": "string",
          "name": "dataCID",
          "type": "string"
        },
        {
          "indexed": false,
          "internalType": "uint256",
          "name": "submittedAt",
          "type": "uint256"
        },
        {
          "indexed": false,
          "internalType": "bool",
          "name": "paid",
          "type": "bool"
        }
      ],
      "name": "JobSubmitted",
      "type": "event"
    },
    {
      "anonymous": false,
      "inputs": [
        {
          "indexed": true,
          "internalType": "address",
          "name": "node",
          "type": "address"
        },
        {
          "indexed": false,
          "internalType": "uint256",
          "name": "avgRating",
          "type": "uint256"
        },
        {
          "indexed": false,
          "internalType": "uint256",
          "name": "numRatings",
          "type": "uint256"
        }
      ],
      "name": "NodeRatingUpdated",
      "type": "event"
    },
    {
      "anonymous": false,
      "inputs": [
        {
          "indexed": false,
          "internalType": "address",
          "name": "executor",
          "type": "address"
        },
        {
          "indexed": false,
          "internalType": "uint256",
          "name": "amount",
          "type": "uint256"
        }
      ],
      "name": "RewardsWithdrawn",
      "type": "event"
    },
    {
      "anonymous": false,
      "inputs": [
        {
          "indexed": true,
          "internalType": "address",
          "name": "user",
          "type": "address"
        },
        {
          "indexed": false,
          "internalType": "uint256",
          "name": "amount",
          "type": "uint256"
        }
      ],
      "name": "Withdrawal",
      "type": "event"
    },
    {
      "inputs": [],
      "name": "MIN_NUM_RATINGS",
      "outputs": [
        {
          "internalType": "uint256",
          "name": "",
          "type": "uint256"
        }
      ],
      "stateMutability": "view",
      "type": "function"
    },
    {
      "inputs": [],
      "name": "RATING_THRESHOLD",
      "outputs": [
        {
          "internalType": "uint256",
          "name": "",
          "type": "uint256"
        }
      ],
      "stateMutability": "view",
      "type": "function"
    },
    {
      "inputs": [
        {
          "internalType": "address",
          "name": "node",
          "type": "address"
        },
        {
          "internalType": "uint256",
          "name": "rating",
          "type": "uint256"
        }
      ],
      "name": "addNodeRating",
      "outputs": [],
      "stateMutability": "nonpayable",
      "type": "function"
    },
    {
      "inputs": [
        {
          "internalType": "uint256",
          "name": "amount",
          "type": "uint256"
        }
      ],
      "name": "adminWithdraw",
      "outputs": [],
      "stateMutability": "nonpayable",
      "type": "function"
    },
    {
      "inputs": [
        {
          "internalType": "address",
          "name": "",
          "type": "address"
        }
      ],
      "name": "balances",
      "outputs": [
        {
          "internalType": "uint256",
          "name": "",
          "type": "uint256"
        }
      ],
      "stateMutability": "view",
      "type": "function"
    },
    {
      "inputs": [
        {
          "internalType": "uint256",
          "name": "jobId",
          "type": "uint256"
        }
      ],
      "name": "claimJob",
      "outputs": [],
      "stateMutability": "nonpayable",
      "type": "function"
    },
    {
      "inputs": [
        {
          "internalType": "uint256",
          "name": "jobId",
          "type": "uint256"
        }
      ],
      "name": "cleanJob",
      "outputs": [],
      "stateMutability": "nonpayable",
      "type": "function"
    },
    {
      "inputs": [
        {
          "internalType": "uint256",
          "name": "jobId",
          "type": "uint256"
        },
        {
          "internalType": "bytes32",
          "name": "resultHash",
          "type": "bytes32"
        }
      ],
      "name": "completeJob",
      "outputs": [],
      "stateMutability": "nonpayable",
      "type": "function"
    },
    {
      "inputs": [
        {
          "internalType": "uint256",
          "name": "jobId",
          "type": "uint256"
        }
      ],
      "name": "confirmCleaning",
      "outputs": [],
      "stateMutability": "nonpayable",
      "type": "function"
    },
    {
      "inputs": [],
      "name": "deposit",
      "outputs": [],
      "stateMutability": "payable",
      "type": "function"
    },
    {
      "inputs": [
        {
          "internalType": "address",
          "name": "executor",
          "type": "address"
        }
      ],
      "name": "deregisterExecutor",
      "outputs": [],
      "stateMutability": "nonpayable",
      "type": "function"
    },
    {
      "inputs": [
        {
          "internalType": "address",
          "name": "",
          "type": "address"
        }
      ],
      "name": "executors",
      "outputs": [
        {
          "internalType": "bool",
          "name": "",
          "type": "bool"
        }
      ],
      "stateMutability": "view",
      "type": "function"
    },
    {
      "inputs": [
        {
          "internalType": "uint256",
          "name": "jobId",
          "type": "uint256"
        },
        {
          "internalType": "string",
          "name": "reason",
          "type": "string"
        },
        {
          "internalType": "enum JobLogger.ErrorCode",
          "name": "errorCode",
          "type": "uint8"
        }
      ],
      "name": "failJob",
      "outputs": [],
      "stateMutability": "nonpayable",
      "type": "function"
    },
    {
      "inputs": [
        {
          "internalType": "address",
          "name": "node",
          "type": "address"
        }
      ],
      "name": "getNodeNumRatings",
      "outputs": [
        {
          "internalType": "uint256",
          "name": "",
          "type": "uint256"
        }
      ],
      "stateMutability": "view",
      "type": "function"
    },
    {
      "inputs": [
        {
          "internalType": "address",
          "name": "node",
          "type": "address"
        }
      ],
      "name": "getNodeRating",
      "outputs": [
        {
          "internalType": "uint256",
          "name": "",
          "type": "uint256"
        }
      ],
      "stateMutability": "view",
      "type": "function"
    },
    {
      "inputs": [],
      "name": "getRatingThreshold",
      "outputs": [
        {
          "internalType": "uint256",
          "name": "",
          "type": "uint256"
        }
      ],
      "stateMutability": "view",
      "type": "function"
    },
    {
      "inputs": [
        {
          "internalType": "address",
          "name": "user",
          "type": "address"
        }
      ],
      "name": "getUserBalance",
      "outputs": [
        {
          "internalType": "uint256",
          "name": "",
          "type": "uint256"
        }
      ],
      "stateMutability": "view",
      "type": "function"
    },
    {
      "inputs": [
        {
          "internalType": "uint256",
          "name": "jobId",
          "type": "uint256"
        }
      ],
      "name": "isJobPaid",
      "outputs": [
        {
          "internalType": "bool",
          "name": "",
          "type": "bool"
        }
      ],
      "stateMutability": "view",
      "type": "function"
    },
    {
      "inputs": [],
      "name": "jobCount",
      "outputs": [
        {
          "internalType": "uint256",
          "name": "",
          "type": "uint256"
        }
      ],
      "stateMutability": "view",
      "type": "function"
    },
    {
      "inputs": [],
      "name": "jobFee",
      "outputs": [
        {
          "internalType": "uint256",
          "name": "",
          "type": "uint256"
        }
      ],
      "stateMutability": "view",
      "type": "function"
    },
    {
      "inputs": [
        {
          "internalType": "uint256",
          "name": "",
          "type": "uint256"
        }
      ],
      "name": "jobs",
      "outputs": [
        {
          "internalType": "address",
          "name": "submitter",
          "type": "address"
        },
        {
          "internalType": "address",
          "name": "executor",
          "type": "address"
        },
        {
          "internalType": "string",
          "name": "modelCID",
          "type": "string"
        },
        {
          "internalType": "string",
          "name": "dataCID",
          "type": "string"
        },
        {
          "internalType": "bytes32",
          "name": "resultHash",
          "type": "bytes32"
        },
        {
          "internalType": "uint64",
          "name": "submittedAt",
          "type": "uint64"
        },
        {
          "internalType": "uint64",
          "name": "claimedAt",
          "type": "uint64"
        },
        {
          "internalType": "uint64",
          "name": "completedAt",
          "type": "uint64"
        },
        {
          "internalType": "uint64",
          "name": "cleanedAt",
          "type": "uint64"
        },
        {
          "internalType": "enum JobLogger.Status",
          "name": "status",
          "type": "uint8"
        },
        {
          "internalType": "enum JobLogger.ErrorCode",
          "name": "errorCode",
          "type": "uint8"
        },
        {
          "internalType": "string",
          "name": "errorMsg",
          "type": "string"
        },
        {
          "internalType": "bool",
          "name": "paid",
          "type": "bool"
        }
      ],
      "stateMutability": "view",
      "type": "function"
    },
    {
      "inputs": [
        {
          "internalType": "address",
          "name": "",
          "type": "address"
        }
      ],
      "name": "nodeAvgRating",
      "outputs": [
        {
          "internalType": "uint256",
          "name": "",
          "type": "uint256"
        }
      ],
      "stateMutability": "view",
      "type": "function"
    },
    {
      "inputs": [
        {
          "internalType": "address",
          "name": "",
          "type": "address"
        }
      ],
      "name": "nodeNumRatings",
      "outputs": [
        {
          "internalType": "uint256",
          "name": "",
          "type": "uint256"
        }
      ],
      "stateMutability": "view",
      "type": "function"
    },
    {
      "inputs": [
        {
          "internalType": "address",
          "name": "",
          "type": "address"
        }
      ],
      "name": "nodeRatingSum",
      "outputs": [
        {
          "internalType": "uint256",
          "name": "",
          "type": "uint256"
        }
      ],
      "stateMutability": "view",
      "type": "function"
    },
    {
      "inputs": [],
      "name": "owner",
      "outputs": [
        {
          "internalType": "address",
          "name": "",
          "type": "address"
        }
      ],
      "stateMutability": "view",
      "type": "function"
    },
    {
      "inputs": [
        {
          "internalType": "address",
          "name": "executor",
          "type": "address"
        }
      ],
      "name": "registerExecutor",
      "outputs": [],
      "stateMutability": "nonpayable",
      "type": "function"
    },
    {
      "inputs": [],
      "name": "rewardAmount",
      "outputs": [
        {
          "internalType": "uint256",
          "name": "",
          "type": "uint256"
        }
      ],
      "stateMutability": "view",
      "type": "function"
    },
    {
      "inputs": [
        {
          "internalType": "string",
          "name": "modelCID",
          "type": "string"
        },
        {
          "internalType": "string",
          "name": "dataCID",
          "type": "string"
        },
        {
          "internalType": "bool",
          "name": "paid",
          "type": "bool"
        }
      ],
      "name": "submitJob",
      "outputs": [
        {
          "internalType": "uint256",
          "name": "",
          "type": "uint256"
        }
      ],
      "stateMutability": "nonpayable",
      "type": "function"
    },
    {
      "inputs": [
        {
          "internalType": "address",
          "name": "newOwner",
          "type": "address"
        }
      ],
      "name": "transferOwnership",
      "outputs": [],
      "stateMutability": "nonpayable",
      "type": "function"
    },
    {
      "inputs": [
        {
          "internalType": "uint256",
          "name": "amount",
          "type": "uint256"
        }
      ],
      "name": "withdraw",
      "outputs": [],
      "stateMutability": "nonpayable",
      "type": "function"
    },
    {
      "inputs": [],
      "name": "withdrawRewards",
      "outputs": [],
      "stateMutability": "nonpayable",
      "type": "function"
    }
  ],
  "bytecode": "0x60808060405234604857662386f26fc100006002908155662714711487800060035560045561012c600855600180546001600160a01b03191633179055611d51908161004e8239f35b600080fdfe608080604052600436101561001357600080fd5b60003560e01c9081630493bd091461197957508063180aedf31461184457806327e235e3146116fe5780632e1a7d4d1461177457806333941b29146117565780633d8f0b6d1461173857806347734892146116fe5780634b3a92a1146116c45780634c5d8a0f146116a65780635240ab731461158e5780637aaff8441461106d5780637c5b4a37146114b15780638da5cb5b146114885780639ac2a01114611449578063a09c59fb1461137d578063add6114e1461121d578063aee7e2b51461025d578063c7b8981c146110a7578063c93294011461106d578063cb127c5b14610e27578063d0e30db014610d98578063d29e6bc914610caf578063dcd496a314610c7b578063e3e4b9fb14610b01578063ebb59fad146109b2578063ec59eb731461033d578063f2fde38b146102b5578063f694c76114610297578063f75614f21461025d578063f7b2a7be1461023f5763ff8a48071461017457600080fd5b3461023a57602036600319011261023a5761018d611af4565b6101a260018060a01b03600154163314611b44565b6001600160a01b03166000818152600a602052604090205460ff1615610204576020817fbae032118ceb22b626b3d85db081a22cb175340e28f4e1c422b88586ea62c3d692600052600a8252604060002060ff198154169055604051908152a1005b60405162461bcd60e51b815260206004820152600e60248201526d139bdd081c9959da5cdd195c995960921b6044820152606490fd5b600080fd5b3461023a57600036600319011261023a576020600254604051908152f35b3461023a57602036600319011261023a576001600160a01b0361027e611af4565b1660005260066020526020604060002054604051908152f35b3461023a57600036600319011261023a576020600854604051908152f35b3461023a57602036600319011261023a576102ce611af4565b600154906102e6336001600160a01b03841614611b44565b6001600160a01b0316908115610306576001600160a01b03191617600155005b60405162461bcd60e51b815260206004820152600f60248201526e496e76616c6964206164647265737360881b6044820152606490fd5b3461023a57606036600319011261023a576004356001600160401b03811161023a5761036d903690600401611b0a565b6024356001600160401b03811161023a5761038c903690600401611b0a565b9160443591821515830361023a5760015483906001600160a01b03163303610912575b506000549360001985146108fc5760018501600055604051956101a087018781106001600160401b038211176107f657604052338752600060208801526103f7368583611cd5565b6040880152610407368385611cd5565b6060880152600060808801526001600160401b03421660a0880152600060c0880152600060e088015260006101008801526000610120880152600061014088015260209660405161045889826119ce565b6000808252610160830191909152861515610180830190815288825260098a52604091829020835181546001600160a01b039182166001600160a01b031991821617835560208601516001840180549190931691161790559183015180519193916002840191906001600160401b0381116107f6576104e1816104db8554611994565b85611c43565b8c8d601f83116001146108935750819061051293600092610888575b50508160011b916000199060031b1c19161790565b90555b60608101518051906001600160401b0382116107f6576105458261053c6003870154611994565b60038701611c43565b8b90601f83116001146108175761057492916000918361080c5750508160011b916000199060031b1c19161790565b60038301555b60808101516004830155610633600583016001600160401b0360a0840151166001600160401b03198254161781556105e26001600160401b0360c085015116829067ffffffffffffffff60401b82549160401b169067ffffffffffffffff60401b1916179055565b60e0830151815467ffffffffffffffff60801b191660809190911b67ffffffffffffffff60801b1617815561010083015181546001600160c01b031660c09190911b6001600160c01b031916179055565b6106736006830161012083015161064981611ad4565b61065281611ad4565b60ff801983541691161781556101408301519061066e82611ad4565b611c95565b6101600151805160078301916001600160401b0382116107f65761069b826104db8554611994565b8b908c601f841160011461075d5750937f6c115402cbc5dfd5c6ad981b6cf045335bac454104b130b6ffb7830e862b5849999896936106fd846107369a9895600895610728996000926107525750508160011b916000199060031b1c19161790565b90555b019051151560ff801983541691161790556040519589875260a08b88015260a0870191611cb4565b918483036040860152611cb4565b92426060830152151560808201528033930390a2604051908152f35b0151905038806104fd565b9190601f1984168560005283600020936000905b8282106107de5750508460089461072898947f6c115402cbc5dfd5c6ad981b6cf045335bac454104b130b6ffb7830e862b58499e9d9b98946107369d9b98600195106107c5575b505050811b019055610700565b015160001960f88460031b161c191690553880806107b8565b80600186978294978701518155019601940190610771565b634e487b7160e01b600052604160045260246000fd5b015190508d806104fd565b8c92916003860160005283600020916000945b601f198516861061086f57506001945083601f19811610610856575b505050811b01600383015561057a565b015160001960f88460031b161c191690558c8080610846565b828201518455948501946001909301929182019161082a565b015190508e806104fd565b9192601f1984168560005283600020936000905b8282106108e45750509084600195949392106108cb575b505050811b019055610515565b015160001960f88460031b161c191690558d80806108be565b806001869782949787015181550196019401906108a7565b634e487b7160e01b600052601160045260246000fd5b61091d575b826103af565b33600052600b6020526040600020546003548091106109565733600052600b60205261094f6040600020918254611b37565b9055610917565b60405162461bcd60e51b815260206004820152602e60248201527f496e73756666696369656e742062616c616e63652e20506c656173652064657060448201526d37b9b4ba1036b7b9329022aa241760911b6064820152608490fd5b3461023a57604036600319011261023a577f20390249da982564d13baad0c771e46891346f25290e22572e3468bb5705eb96608060043560243533600052600a602052610a0660ff60406000205416611b8a565b600082815260096020526040902060010154610a2c906001600160a01b03163314611bce565b816000526009602052610a55600160ff60066040600020015416610a4f81611ad4565b14611c09565b60008281526009602052604090206004810182905560058101805467ffffffffffffffff60801b19164260801b67ffffffffffffffff60801b1617905560068101805460ff191660021790556008015460ff16610ade575b81600052600960205260ff6008604060002001541690604051928352602083015242604083015215156060820152a1005b60025433600052600b602052610afa6040600020918254611b7d565b9055610aad565b3461023a57602036600319011261023a5760043533600052600a602052610b2f60ff60406000205416611b8a565b6000818152600960205260409020546001600160a01b031615610c485780600052600960205260ff60066040600020015416610b6a81611ad4565b610c1157600081815260096020526040908190206001810180546001600160a01b0319163317905560050180546fffffffffffffffff000000000000000019164290921b67ffffffffffffffff60401b169190911790558060005260096020526006604060002001600160ff198254161790556040519081524260208201527f76fd1071bb2e8e5da7695a00bf50a2ba73ff07ba5f83b6a36729fdb0d290587e60403392a2005b60405162461bcd60e51b815260206004820152600f60248201526e4a6f6220756e617661696c61626c6560881b6044820152606490fd5b60405162461bcd60e51b815260206004820152600b60248201526a24b73b30b634b2103537b160a91b6044820152606490fd5b3461023a57602036600319011261023a576004356000526009602052602060ff600860406000200154166040519015158152f35b3461023a57602036600319011261023a5760043533600052600a602052610cdd60ff60406000205416611b8a565b600081815260096020526040902060010154610d03906001600160a01b03163314611bce565b806000526009602052600460ff60066040600020015416610d2381611ad4565b03610d615760607fb76df72f3160d6c12e44330b846710377fe63af9e2eae1250588dad4e786c80091604051908152336020820152426040820152a1005b60405162461bcd60e51b815260206004820152600f60248201526e129bd8881b9bdd0818db19585b9959608a1b6044820152606490fd5b600036600319011261023a573415610df35733600052600b6020526040600020610dc3348254611b7d565b90556040513481527fe1fffcc4923d04b559f4d29a8bfc6cda04eb5b0d3c460751c2402c5c5cc9109c60203392a2005b60405162461bcd60e51b815260206004820152600c60248201526b16995c9bc819195c1bdcda5d60a21b6044820152606490fd5b3461023a57606036600319011261023a576004356024356001600160401b03811161023a57610e5a903690600401611b0a565b9091604435600581101561023a5733600052600a602052610e8260ff60406000205416611b8a565b600082815260096020526040902060010154610ea8906001600160a01b03163314611bce565b816000526009602052610ecb600160ff60066040600020015416610a4f81611ad4565b600082815260096020526040902060058101805467ffffffffffffffff60801b19164260801b67ffffffffffffffff60801b1617905560068101805460ff191660031790556007016001600160401b0384116107f657610f3584610f2f8354611994565b83611c43565b6000601f8511600114610fe55794610fc091610f8a86807f07ec659564439edc1a475c0df98d0ce64f9e581788fa1f1b1f0ae0746ca130c699600091610fda575b508160011b916000199060031b1c19161790565b90555b836000526009602052610fa7836006604060002001611c95565b6040519485948552608060208601526080850191611cb4565b90610fca81611ad4565b60408301524260608301520390a1005b90508401358a610f76565b8181526020812090601f198616815b818110611055575091610fc09391877f07ec659564439edc1a475c0df98d0ce64f9e581788fa1f1b1f0ae0746ca130c699941061103b575b5050600186811b019055610f8d565b830135600019600389901b60f8161c19169055878061102c565b9192602060018192868c013581550194019201610ff4565b3461023a57602036600319011261023a576001600160a01b0361108e611af4565b1660005260076020526020604060002054604051908152f35b3461023a57600036600319011261023a5733600052600a6020526110d260ff60406000205416611b8a565b336000526007602052604060002054600854116111e757336000526006602052604060002054600454116111ad5733600052600b602052604060002054801561117b5733600052600b602052600060408120556000808080843382f11561116f576040805133815260208101929092527f8a43c4352486ec339f487f64af78ca5cbf06cd47833f073d3baf3a193e5031619190819081015b0390a1005b6040513d6000823e3d90fd5b60405162461bcd60e51b815260206004820152600a6024820152694e6f207265776172647360b01b6044820152606490fd5b60405162461bcd60e51b81526020600482015260126024820152714e6f7420656e6f75676820726174696e677360701b6044820152606490fd5b60405162461bcd60e51b815260206004820152600e60248201526d526174696e6720746f6f206c6f7760901b6044820152606490fd5b3461023a57604036600319011261023a57611236611af4565b6024359061124f60018060a01b03600154163314611b44565b6101f482116113245760018060a01b03169081600052600560205261127a6040600020918254611b7d565b90558060005260066020526040600020805490600182018092116108fc575580600052600560205260406000205481600052600660205260406000205490811561130e57600083815260076020908152604080832094909304938490556006815290829020548251938452908301527fde82d2493602b338f0c4a42eea897c4a8d04fa38c10e89787f5f2ba157a1ba6191a2005b634e487b7160e01b600052601260045260246000fd5b60405162461bcd60e51b815260206004820152602b60248201527f526174696e67206d75737420626520302d3530302028692e652e20302e30302d60448201526a352e3030202a203130302960a81b6064820152608490fd5b3461023a57602036600319011261023a57611396611af4565b6113ab60018060a01b03600154163314611b44565b6001600160a01b03166000818152600a602052604090205460ff1661140f576020817f12ad16bd2a8e5f789a2584f92dba7594ec459e9eb0d00b0dba8843f6c59f035b92600052600a82526040600020600160ff19825416179055604051908152a1005b60405162461bcd60e51b8152602060048201526012602482015271105b1c9958591e481c9959da5cdd195c995960721b6044820152606490fd5b3461023a57602036600319011261023a576001600160a01b0361146a611af4565b16600052600a602052602060ff604060002054166040519015158152f35b3461023a57600036600319011261023a576001546040516001600160a01b039091168152602090f35b3461023a57602036600319011261023a57600154600435906001600160a01b03166114dd338214611b44565b4782116115495760008080848194828215611540575bf11561116f57600154604080516001600160a01b03909216825260208201929092527f1f29bc8239df330207e019f41493b485f9c7d3ce83a795ae64603dde527ada2e918190810161116a565b506108fc6114f3565b60405162461bcd60e51b815260206004820152601d60248201527f496e73756666696369656e7420636f6e74726163742062616c616e63650000006044820152606490fd5b3461023a57602036600319011261023a57600435806000526009602052600260ff600660406000200154166115c281611ad4565b14801561167f575b15611649576000818152600960205260409081902060050180546001600160c01b03164260c01b6001600160c01b0319161790557f5db4ba7a97f48a89f0abb30bfbb641f528597e5090ccda26c348b637e07ea9b19180600052600960205260068260002001600460ff198254161790558151908152426020820152a1005b60405162461bcd60e51b815260206004820152600e60248201526d4a6f6220696e636f6d706c65746560901b6044820152606490fd5b50806000526009602052600360ff600660406000200154166116a081611ad4565b146115ca565b3461023a57600036600319011261023a576020600054604051908152f35b3461023a57602036600319011261023a576001600160a01b036116e5611af4565b1660005260056020526020604060002054604051908152f35b3461023a57602036600319011261023a576001600160a01b0361171f611af4565b16600052600b6020526020604060002054604051908152f35b3461023a57600036600319011261023a576020600354604051908152f35b3461023a57600036600319011261023a576020600454604051908152f35b3461023a57602036600319011261023a5760043533600052600b60205280604060002054106118085733600052600b60205260406000206117b6828254611b37565b905580600081156117ff575b600080809381933390f11561116f576040519081527f7fcf532c15f0a6db0bd6d0e038bea71d30d808c7d98cb3bf7268a95bf5081b6560203392a2005b506108fc6117c2565b60405162461bcd60e51b8152602060048201526014602482015273496e73756666696369656e742062616c616e636560601b6044820152606490fd5b3461023a57602036600319011261023a576004356000908152600960205260409020805460018201546001600160a01b039081169291169061196c61188b600283016119ef565b91611898600382016119ef565b9060048101549160058201546006830154906118fe60ff8084169360081c16936118f060ff60086118cb60078a016119ef565b98015416996040519c8d9c8d5260208d01526101a060408d01526101a08c0190611a93565b908a820360608c0152611a93565b9460808901526001600160401b03811660a08901526001600160401b038160401c1660c08901526001600160401b038160801c1660e089015260c01c61010088015261194981611ad4565b61012087015261195881611ad4565b610140860152848203610160860152611a93565b9015156101808301520390f35b3461023a57600036600319011261023a576020906008548152f35b90600182811c921680156119c4575b60208310146119ae57565b634e487b7160e01b600052602260045260246000fd5b91607f16916119a3565b90601f801991011681019081106001600160401b038211176107f657604052565b9060405191826000825492611a0384611994565b8084529360018116908115611a715750600114611a2a575b50611a28925003836119ce565b565b90506000929192526020600020906000915b818310611a55575050906020611a289282010138611a1b565b6020919350806001915483858901015201910190918492611a3c565b905060209250611a2894915060ff191682840152151560051b82010138611a1b565b919082519283825260005b848110611abf575050826000602080949584010152601f8019910116010190565b80602080928401015182828601015201611a9e565b60051115611ade57565b634e487b7160e01b600052602160045260246000fd5b600435906001600160a01b038216820361023a57565b9181601f8401121561023a578235916001600160401b03831161023a576020838186019501011161023a57565b919082039182116108fc57565b15611b4b57565b60405162461bcd60e51b815260206004820152600a60248201526927b7363c9037bbb732b960b11b6044820152606490fd5b919082018092116108fc57565b15611b9157565b60405162461bcd60e51b81526020600482015260156024820152742737ba103b32b934b334b2b21032bc32b1baba37b960591b6044820152606490fd5b15611bd557565b60405162461bcd60e51b815260206004820152600c60248201526b2737ba1032bc32b1baba37b960a11b6044820152606490fd5b15611c1057565b60405162461bcd60e51b815260206004820152600b60248201526a139bdd0818db185a5b595960aa1b6044820152606490fd5b601f8211611c5057505050565b6000526020600020906020601f840160051c83019310611c8b575b601f0160051c01905b818110611c7f575050565b60008155600101611c74565b9091508190611c6b565b90611c9f81611ad4565b61ff0082549160081b169061ff001916179055565b908060209392818452848401376000828201840152601f01601f1916010190565b9291926001600160401b0382116107f65760405191611cfe601f8201601f1916602001846119ce565b82948184528183011161023a57828160209384600096013701015256fea26469706673582212208b4e55f9850640b68a8954a3a0b137018c1cb75900fd7ac78c93a524c2cd22ee64736f6c634300081c0033",
  "linkReferences": {},
  "deployedLinkReferences": {}
}